{
  "contractName": "SimpleStorage",
  "abi": [
    {
      "constant": true,
      "inputs": [],
      "name": "state",
      "outputs": [
        {
          "name": "",
          "type": "uint256"
        }
      ],
      "payable": false,
      "stateMutability": "view",
      "type": "function"
    },
    {
      "inputs": [],
      "payable": false,
      "stateMutability": "nonpayable",
      "type": "constructor"
    },
    {
      "constant": true,
      "inputs": [],
      "name": "getState",
      "outputs": [
        {
          "name": "",
          "type": "uint256"
        }
      ],
      "payable": false,
      "stateMutability": "view",
      "type": "function"
    }
  ],
  "bytecode": "0x608060405234801561001057600080fd5b506103e860008190555060aa806100286000396000f3fe6080604052348015600f57600080fd5b506004361060325760003560e01c80631865c57d146037578063c19d93fb146053575b600080fd5b603d606f565b6040518082815260200191505060405180910390f35b60596078565b6040518082815260200191505060405180910390f35b60008054905090565b6000548156fea165627a7a723058203391f99e62f67d407abf9fa69e6cfc188a71ef2c774d412d09d2e1dd8c5b3e440029",
  "source": "pragma solidity ^0.5.8;\n\ncontract SimpleStorage {\n    uint256 public state;\n    \n    constructor() public {\n        state = 1000;\n    }\n    \n    function getState() public view returns(uint256){\n        return state;\n    }\n}",
  "sourcePath": "/Users/edsonalcala/Projects/2020/remix-profiler/sample-truffle/contracts/SimpleStorage.sol",
  "compiler": {
    "name": "solc",
    "version": "0.5.8+commit.23d335f2.Emscripten.clang"
  },
  "schemaVersion": "3.0.11",
  "updatedAt": "2019-07-21T14:46:56.031Z",
  "devdoc": {
    "methods": {}
  },
  "userdoc": {
    "methods": {}
  }
}